:100000000C94F3020C94C21B0C943A030C943A0324
:100010000C943A030C943A030C943A030C943A036C
:100020000C943A030C943A030C94752E0C94492FBB
:100030000C9475290C943A030C943A030C943A03EB
:100040000C943A030C943A030C943A030C943A033C
:100050000C943A030C94CC290C943A030C943A0374
:100060000C943A030C943A030C943A030C943A031C
:100070000C943A030C943A030C943A030C943A030C
:100080000C943A030C943A030C943A030C943A03FC
:100090000C943A030C943A030C943A030C943A03EC
:1000A0000C943A030C943A030C943A03010128008F
:1000B000676974207374617475730029001E001FD2
:1000C0000020002100220000002B0014001A00086C
:1000D0000015001700000031000400160007000999
:1000E000000A000000E1001D001B000600190005C9
:1000F000000000E0004A004D00E200605D2C0000BE
:10010000002A00270026002500240023004B004C75
:1001100000130012000C0018001C00A9003400336A
:10012000000F000E000D000B00AA00280038003759
:10013000003600100011004E00350030002F002E58
:10014000002D002C00280000003A003B003C003D40
:10015000003E00615D000000005200000000000051
:1001600000160A0000500051004F0000000000621D
:100170005D390000000000000000000000170100D1
:1001800000000000000000010000000C03450044D6
:100190000043004200410040003F0000000000001A
:1001A000000000000000000000000000000000004F
:1001B000000000000000000000000000000000003F
:1001C000000000000000000000000000000000002F
:1001D00000000000000000000000002A2B280000A2
:1001E00000000000000000000000000000002900E6
:1001F0000000002C1E3420212224342627252E36F0
:100200002D3738271E1F202122232425263333365D
:100210002E37381F0405060708090A0B0C0D0E0FB0
:10022000101112131415161718191A1B1C1D2F3133
:1002300030232D350405060708090A0B0C0D0E0F97
:10024000101112131415161718191A1B1C1D2F3113
:1002500030354C00000000000000000000000000ED
:10026000000000000000000000000000000000008E
:10027000000000000000007E0F00D4FFFFFFC70059
:100280000000781E0F0500047F3F1F6432146432A3
:1002900014783C1E1E140A052223252628292A2C00
:1002A0002D2F3032333536383A3B3D3E40424345C0
:1002B00047494A4C4E5051535557595A5C5E6062FB
:1002C000646668696B6D6F71737577797B7D7F810B
:1002D000838587898A8C8E90929496989A9C9E9F0B
:1002E000A1A3A5A7A8AAACAEAFB1B3B4B6B8B9BB29
:1002F000BCBEBFC1C2C3C5C6C7C9CACBCCCDCED098
:10030000D1D2D2D3D4D5D6D7D7D8D9D9DADADBDB84
:10031000DBDCDCDCDCDCDDDDDDDDDCDCDCDCDCDB1B
:10032000DBDBDADAD9D9D8D7D7D6D5D4D3D2D2D164
:10033000D0CECDCCCBCAC9C7C6C5C3C2C1BFBEBC57
:10034000BBB9B8B6B4B3B1AFAEACAAA8A7A5A3A1C8
:100350009F9E9C9A98969492908E8C8A898785838A
:10036000817F7D7B79777573716F6D6B696866646A
:1003700062605E5C5A5957555351504E4C4A49473A
:10038000454342403E3D3B3A3836353332302F2DDF
:100390002C2A292826252322FFAA7F554000010167
:1003A0000101010101010102020202020202020234
:1003B0000303030303030303040404040404040504
:1003C00005050505060606060607070707070808C8
:1003D0000808090909090A0A0A0B0B0B0C0C0C0D79
:1003E0000D0D0E0E0E0F0F0F101011111112121312
:1003F000131414151516161717181819191A1A1B8D
:100400001B1C1D1D1E1E1F202021222223242425EB
:100410002626272829292A2B2C2D2D2E2F30313224
:1004200032333435363738393A3B3C3D3E3F404134
:1004300042434445464748494A4C4D4E4F5051531C
:1004400054555658595A5B5D5E5F616264656668D3
:10045000696B6C6D6F7072737577787A7B7D7E8057
:1004600082838587888A8C8E8F91939596989A9CA3
:100470009EA0A2A3A5A7A9ABADAFB1B3B5B7BABCB7
:10048000BEC0C2C4C6C9CBCDCFD1D4D6D8DBDDDF88
:10049000E2E4E7E9EBEEF0F3F5F8FAFDFF2A0354A6
:1004A0000068006500200056006900740065007255
:1004B000006200690020004B006500790062006F57
:1004C0000061007200640000000E034B00650065CF
:1004D00000620069006F0000000403090409023B88
:1004E00000020100A0FA0904000001030101000953
:1004F00021110100012240000705810308000A09BB
:100500000401000103000000092111010001227B08
:10051000000705820320000A1201100100000008F4
:1005200010CB572100020102000105010902A101BF
:1005300085020901A10005091901290815002501F5
:100540009508750181020501093009311581257F62
:1005500095027508810609381581257F9501750872
:100560008106050C0A38021581257F9501750881E1
:1005700006C0C005010980A101850319012AB70041
:10058000150126B700950175108100C0050C090101
:10059000A101850419012AA002150126A0029501D6
:1005A00075108100C005010906A101050719E029A0
:1005B000E7150025019508750181029501750881EF
:1005C000010507190029FF150026FF00950675088B
:1005D000810005081901290595057501910295010C
:1005E00075039101C00011241FBECFEFDAE0DEBF1A
:1005F000CDBF04B603FE27C080915B0390915C03DE
:10060000A0915D03B0915E038730904BA740B04B43
:10061000D1F410925B0310925C0310925D03109270
:100620005E0314BE84B7877F84BF0FB6F894A89585
:1006300080916000886180936000109260000FBE1E
:10064000E0E0F8E3099511E0A0E0B1E0E4E6F5E6CA
:1006500002C005900D92A63EB107D9F723E0A6EEA1
:10066000B1E001C01D92AB35B207E1F70E94B12B9A
:100670000C9488320C9400000E943E1785E00E9482
:10068000AC170E949B144FEF6FEF80E00E94BF10E9
:100690008BE00E94981460E070E0CB010E94542827
:1006A0000C94602808958091E801882391F08DEEE4
:1006B0000E94411F8EEE0E94411F8FEE0E94411F3B
:1006C00080EF0E94411F89EF0E94411F8AEF0C9426
:1006D000411F089580EB90E00E945A052FEF84E3BC
:1006E0009CE0215080409040E1F700C000008CEA7F
:1006F00090E00C945A05CF93FB0180362DE59207CC
:1007000009F138F48F359D45A9F0C1E08C2FCF91C8
:10071000089581362DE59207F9F082369D45A9F7B7
:10072000C281CC2399F38091E80191E089278093DD
:10073000E80106C0C281CC2349F380E00E94000496
:10074000C0E0E4CFC28181E0CC2319F00E94BC2537
:10075000F7CF0E94DD25DACFC281CC23B9F20E9407
:100760006A03EECF81E008950C947B0308950C9406
:10077000B6031F93CF93DF9300D000D00F92CDB775
:10078000DEB749835A836B8330917D0289819A81D8
:1007900031111DC06623B9F02223A9F00E94AC26B6
:1007A000182F682F89819A810E94582669817A8141
:1007B000812F0F900F900F900F900F90DF91CF919E
:1007C0001F910C9470050E948426182FEFCF0E9471
:1007D000AC2669817A81EDCFFC01262F40815181C1
:1007E0006281738184810C94B903CF93DF93EC0110
:1007F00060E00E94EC03BE01DF91CF910C94B7033F
:10080000CF93DF93C1E0D0E002C0CC0FDD1F8A950B
:10081000E2F78C2F0E943428BE0190E080E0DF9147
:10082000CF910C945A250E947C070E9446180C9484
:10083000A0070C94A20708950E94C2210E941B04E5
:100840002FEF84E39CE0215080409040E1F700C00E
:1008500000000C943A2A0F931F93CF93DF938C01DF
:1008600061E00E94EC03EC01B8010E94B40388230C
:1008700009F441C0B801CE010E94B2178823D9F112
:10088000B801CE010E94EE188823A9F1B801CE016B
:100890000E944019882379F1B801CE010E94631AA1
:1008A000882349F1B801CE010E940216882319F16C
:1008B000F8018281882361F0CB35FDE5DF0721F166
:1008C00070F4C115ECE5DE07A1F0CF3DDC45C9F0C1
:1008D000C801DF91CF911F910F910C94B203CC35D9
:1008E0008DE5D807A1F0CD35DD4591F70E9453275E
:1008F000EFCF0E941C0480E0DF91CF911F910F91F8
:1009000008950E94C428F7CF0E945C27E1CF0E947F
:100910005F27DECFDF92EF92FF920F931F93CF936B
:10092000DF93E82FF0E0ED52FE4FD490282F26956C
:100930002695269530E0F901ED58FD4F049187701A
:1009400010E0082E02C0159507950A94E2F7017091
:100950001127F901ED59FD4FE490F12C082E02C04A
:10096000F594E7940A94E2F791E0E922FF24F90173
:10097000ED5AFD4FC491D0E002C0D595C7958A9538
:10098000E2F7C170DD270115110519F081EE0E9413
:100990003D1EE114F10419F086EE0E943D1E8D2DDE
:1009A0000E94411FEF2819F086EE0E94D41E012BF1
:1009B00019F081EE0E94D41ECD2B51F08CE2DF9114
:1009C000CF911F910F91FF90EF90DF900C94411FFA
:1009D000DF91CF911F910F91FF90EF90DF900895DD
:1009E000EF92FF920F931F93CF93DF938C01F62E1C
:1009F0008AE0E82EF8018491882309F454C08130FC
:100A000009F04DC0E8012196FE018491813091F4F6
:100A10002196FE0184910E94411F8E010F5F1F4F9E
:100A20008F2D815038F3EFE9FFE03197F1F700C0E7
:100A30000000F7CF823039F4E8012296FE0184915C
:100A40000E943D1EEACF833039F4E8012296FE0170
:100A500084910E94D41EE1CF8430F9F6E8012296F9
:100A6000FE01249190E080E0FE0131962053330B8B
:100A70002A30310548F0019780F2EFE9FFE0319725
:100A8000F1F700C00000F7CFE89EA001E99E500DED
:100A90001124C901840F951F2491EF01E5CF0E9415
:100AA0008A04E801BACFDF91CF911F910F91FF9097
:100AB000EF90089560E00C94F00408950C945D05A7
:100AC00081E008950C946005CF93C82F0E945E05C5
:100AD0008C2FCF910C94620590E080E008950895EA
:100AE000972F70E027E0929F600D711D1124FB018C
:100AF00096E4899FE00DF11D1124EE0FFF1FE554D0
:100B0000FF4F859194910895FC01EE0FFF1FED5763
:100B1000FD4F859194910895CF93DF930E947005C6
:100B20000E94A106EC01811520E5920708F042C061
:100B3000811530E4930708F0BDC0883E910528F583
:100B4000803E910508F09DC0883A910588F4853A69
:100B5000910508F08FC08130910509F492C000978B
:100B600009F48FC0049708F08CC0D0E0C0E089C0C1
:100B70008F3B910508F489C0805C9109C03CD10588
:100B8000A0F30E948405EC017CC08115904250F4D2
:100B9000C11581E0D80708F074C0CD3ED10528F317
:100BA000D0656FC0C11590E3D90708F079C0CE01B8
:100BB0009F70E7CF811525E5920758F5811534E53B
:100BC000930708F0A6C0811542E5940750F4C115BB
:100BD00081E5D80708F471C0DC2FCC27C16FD06A3B
:100BE00050C0982F969596959E0123703327C11576
:100BF000D34508F07FC0C1E0D0E002C0CC0FDD1FBC
:100C00002A95E2F720E2929FC0011124C82BD92B2C
:100C10006FC0C11589E5D807A8F4C11598E5D907B3
:100C200008F07CC0C11526E5D20708F09ECF8C2FB6
:100C30000E943807C82FD0E0DC2FCC27CC27DF71EB
:100C4000D0621FC0C1153AE5D30708F46CC0CE01CD
:100C500090568115904208F088CF8D2F8F710E9499
:100C6000380790E0982F882788279F719C012C2BAC
:100C7000E901E6CFC55AD0E0C559DE4FC881D0E0C2
:100C8000D064CE01DF91CF910895C85AD0E0CC0F47
:100C9000DD1FC35CDE4F0990D881C02DD464F1CF35
:100CA000CE019927D3FF03C0EC01D86CEACFEC0149
:100CB000D06CE7CFDF70D06AE4CFCE01E4E0969548
:100CC0008795EA95E1F783702C2F2695269523705A
:100CD00090E2299F90011124382B8C2F8370C1E062
:100CE000D0E002C0CC0FDD1F8A95E2F7C22BD32BD8
:100CF000DC68C7CFC1E0D0E002C0CC0FDD1F2A9571
:100D0000E2F730E2939FC0011124C82BD92BDA6897
:100D1000B8CFD82FCC27C46FD06AB3CFDC2FCC2765
:100D2000C06FD06AAECF8C2F8F700E94380734E02E
:100D3000D695C7953A95E1F7CF709C2FEC01D06915
:100D4000A0CF82389105B1F1B0F48133910509F457
:100D500075C048F48932910509F469C08A32910559
:100D600009F473C008958533910509F459C0893396
:100D7000910501F10895833E9105A9F138F4803E73
:100D80009105F9F0823E910549F10895863E91055D
:100D9000A9F1873E9105C9F1843E910519F520918D
:100DA000050321FF1FC08091040384FD14C087EE5A
:100DB00090E00895209104032370A1F080EE90E06C
:100DC00008952091040320FD47C03091050330FFB2
:100DD00009C024FF44C090E080E004C020910403D7
:100DE00022FDF7CF08952091040322FD3BC03091EE
:100DF000050330FDE3CF24FFF5CFEDCF20910403B1
:100E000023FFF0CF24FDE7CFD2CF2091040323FDB1
:100E10002CC03091050331FFEECF84EE90E00895B1
:100E20002091040325FFDECF89E290E00895209110
:100E3000040325FFD7CF85E390E0089520910403B4
:100E400026FFD0CF8AE290E008952091040326FF88
:100E5000C9CF81E390E0089589E390E0089583EE9F
:100E600090E0089582EE90E0089586EE90E0089577
:100E70009091040392FF06C0282F28712830F9F4BE
:100E8000877F846093FF06C0282F28712831F1F4F2
:100E9000877E84612091050320FF06C0382F3871BA
:100EA0003830D9F4877F816021FF06C0282F287150
:100EB0002831D1F4877E816194FD877E0895282FA3
:100EC00024712430F9F68B7F8860DCCF282F2471C1
:100ED000243101F78B7E8861DDCF382F31713130BD
:100EE00019F78E7F8860E0CF282F2171213121F7FB
:100EF0008E7E8861E1CF08950E942128811102C071
:100F00000E94C4280E942C288093F8020E9439284D
:100F100090930503809304030E947B070E9430286E
:100F2000682F70E090E080E00E945A256091E30213
:100F30007091E4028091E5029091E6020C94942570
:100F40000C9452030C945303E82FF0E0E05FFC4F45
:100F500080810895089580EA8A95F1F7089500C088
:100F600008950C94AB07F894E82FE295EF70F0E049
:100F700031A1282F2F7081E090E001C0880F2A95C1
:100F8000EAF7982F9095932391A392A1892B82A39E
:100F90007894089508950C94CA07CF93DF930E9424
:100FA0005009809104018091040195E0811190E045
:100FB00090931B0385E0891B80931A0384E90E94A8
:100FC000B30787E90E94B30786EC0E94B30784E366
:100FD0000E94B30785E30E94B307CEE6D1E0899172
:100FE0000E94B30781E0C537D807C9F7E6E0F3E010
:100FF000A0E1B3E011921D9283E0E031F807D1F750
:1010000085E00E94FA080E941304DF91CF910C94AE
:101010006509FF920F931F93CF93DF9300D000D009
:101020000F92CDB7DEB70E943809F82E60911B03EE
:10103000882309F450C08E010F5F1F4F85E0F8012F
:1010400011928A95E9F7862F90E0B801805F9C4F56
:101050000E94B61A811122C08091E9018F5F8093AE
:10106000E9018630B0F1E0911A03F0E0E05FFC4F57
:10107000D801CE01069611921D92A817B907D9F78B
:101080000E9419048F2D0F900F900F900F900F90CA
:10109000DF91CF911F910F91FF9008951092E90178
:1010A000A0911A03B0E0A05FBC4F9E012A5F3F4FA2
:1010B000F12C4D91F80191918F01491731F0AD015B
:1010C00041505109FA019083F82E0217130789F74E
:1010D000D7CFF12CD5CF70E0605F7C4F80911A03A1
:1010E00090E0805F9C4F0E94EB1A0E94CB07CACF12
:1010F000CF92DF92EF92FF920F931F93CF93DF93E4
:1011000005E711E086E0E82E83E0F82EC0E0CC246D
:10111000C394D12CF80181918F01F894E82FE295C6
:10112000EF70F0E021A18F70A60102C0440F551F9F
:101130008A95E2F7CA01922F982B91A392A18095EC
:10114000892382A378940E94AF07EEE6F1E030E0B5
:1011500020E0D0E04191A42FA295AF70B0E090962E
:101160008C9190E04F7002C0959587954A95E2F773
:1011700080FD3CC08C2D022E01C0880F0A94EAF736
:10118000D82B2F5F3F4F2730310521F7F8013197DA
:1011900080810E94B3070E94B107F7018081D817B0
:1011A00039F1D08381E0C82BFFEFEF1AFF0A41E04D
:1011B0000A37140709F0AECF60911B0370E0605F3F
:1011C0007C4F2C2F45E086E093E00E94FB080E94B4
:1011D0000908C11101C0C82F8C2FDF91CF911F9139
:1011E0000F91FF90EF90DF90CF90089580E0C8CFEF
:1011F00080E0D9CF0895FF920F931F93CF93DF9391
:10120000F82E092F162FD72FC42F222349F081E063
:101210008093EC010E94A5299093EB018093EA0151
:101220008091EC018823A1F08091EA019091EB017B
:101230000E94BD29069760F0EF2DF02FA12FBD2F42
:10124000CE0FDF2FD11DEC17FD0741F41092EC01FA
:10125000DF91CF911F910F91FF90089581918D9310
:10126000F2CF52985A9889B182FB882780F9089565
:101270008091ED01811107C00E940031882351F057
:1012800081E08093ED0181E09091ED01913009F0D2
:1012900080E0089582E08093ED010E94FB30F3CF5F
:1012A0000E943109809304018091040167E0882342
:1012B00049F080E00E94840E0E943809882321F0C2
:1012C0000C948D1A87E0F6CF08950E943809811199
:1012D00002C00C94931A0895833081F128F4813070
:1012E00059F08230D1F00895853009F449C0B8F141
:1012F000863009F456C0089580910C01482F460F9E
:101300005527551F4F3F510524F4680F60930C017A
:1013100008958FEF80930C01089580910B01482F61
:10132000460F5527551F4F3F510524F4680F609312
:101330000B0108958FEF80930B01089580910A01AE
:10134000482F460F5527551F4F3F510524F4680F6E
:1013500060930A0108958FEF80930A0108958091A8
:101360000901482F460F5527551F4F3F510524F4BB
:10137000680F6093090108958FEF80930901089524
:1013800080910601482F460F5527551F4F3F5105A5
:1013900024F4680F6093060108958FEF809306018F
:1013A000089580910501482F460F5527551F4F3F3F
:1013B000510524F4680F6093050108958FEF809321
:1013C00005010895833011F128F4813049F082300D
:1013D00091F00895853081F120F18630C1F10895B2
:1013E00080910C01681720F4861B80930C010895EE
:1013F00010920C01089580910B01681720F4861B50
:1014000080930B01089510920B01089580910A01B9
:10141000681720F4861B80930A01089510920A0130
:10142000089580910901681720F4861B80930901B3
:10143000089510920901089580910601681720F41B
:10144000861B8093060108951092060108958091ED
:101450000501681720F4861B8093050108951092FA
:10146000050108950F931F9341E050E060E070E0A4
:101470008A019B0104C0000F111F221F331F8A9590
:10148000D2F7C901B8010E945A251F910F910C94FF
:10149000C2218B3109F461C040F58B3071F078F4D2
:1014A000863009F443C020F4853059F180E0089576
:1014B000873009F444C08830C9F781E0089580314D
:1014C00009F459C068F48E3089F79091F802892F99
:1014D0008B7F92FF84608093F80282FD48C0EDCF3D
:1014E000863159F3893149F3E1CF8A32E1F060F472
:1014F0008732A9F020F48E31C8F28D5111C08932A3
:10150000A9F60E941C04D9CF833438F48A33F0F54D
:10151000853329F0883389F2C9CF833439F680E0E6
:101520000E94320ACACF0E94C428C7CF8091F80215
:10153000807F8093F80281E08093EF01089590917D
:10154000F802892F8E7F90FF81608093F80280FDE2
:10155000B4CF817F8093F802B0CF9091F802892FA9
:101560008D7F91FF82608093F80281FFA6CF8091EA
:10157000F8028160EFCF9091F802892F877F93FF67
:1015800088608093F80283FDF2CF97CF8953C8CF4C
:1015900080E008950C94C80A8E518A3030F4E82F08
:1015A000F0E0E158FE4F8081089580E00895CF93E8
:1015B000C82F8091EF018130B9F0882331F082305B
:1015C000A1F11092EF0180E00DC00E9462278232EB
:1015D000D1F78C2F0E94C80A81111BC08C2F0E944A
:1015E000490A8170CF9108950E946227823289F35F
:1015F0008C2F0E94CA0A81110AC0C43199F060F48C
:10160000CB3029F0C03169F782E08093EF0181E0AF
:10161000E8CF81E090E0E5CFC93221F0C833B9F3DB
:1016200080E0DFCF1092EF01FBCFC93219F188F4CF
:10163000C43101F120F4C73081F181E0D3CF82EED3
:101640008C0F8630D0F78C2F0E94CC0A8093EE014D
:10165000F4CFCE3401F140F46AE0CB3471F78091DD
:10166000EE010E946C09E9CFC13579F061E0C23525
:10167000B1F3E3CF8091EE01882319F01092EE01CF
:10168000DCCF81E08093EF01ADCF61E08091EE018E
:101690000E94E209D2CF6AE0F9CF8EE180930C017B
:1016A00082E380930B018AE080930A0184E18093B6
:1016B000090188E08093060188E280930501BDCF8F
:1016C0008091F60180FF12C060910A0185E0689F59
:1016D000B00111247595679575956795603871050A
:1016E000A8F561157105A1F1862F089581FF09C044
:1016F00060910A0185E0689FB00111247595679596
:10170000EDCF60910A0182FD0AC08091F501882326
:10171000D1F09091090160910A01891728F085E0C4
:10172000689FB0011124DACF869FB001112485E0B3
:10173000869F9001879F300D1124692F70E0C901A9
:101740000E944B31CBCF65E070E0CECF8FE708959C
:1017500081E008958091F60180FF0CC06091060140
:1017600070E075956795759567956115710549F1F7
:10177000862F089581FF06C06091060170E075957F
:101780006795F3CF6091060182FD0BC09091F40143
:101790009923A1F06091050180910601961738F018
:1017A000682F70E06038710500F38FE70895899F16
:1017B000C001112470E00E944B31F4CF61E070E071
:1017C000D7CF81E008958D3E31F40E94600B819562
:1017D0008093FA0108958E3E19F40E94600BF8CFB1
:1017E0008F3E31F40E94600B81958093F90108953A
:1017F000803F19F40E94600BF8CF893F29F40E94C2
:10180000AA0B8093FB0108958A3F21F40E94AA0B42
:101810008195F7CF8B3F31F40E94AA0B819580937D
:10182000FC0108958C3F19F40E94AA0BF8CF9FE0A9
:10183000980F983070F4815F990B21E030E001C07F
:10184000220F8A95EAF78091F801822B8093F801A4
:1018500008958D3F31F48091F60181608093F60107
:1018600008958E3F21F48091F6018260F7CF8F3F7B
:10187000B9F78091F6018460F1CF4091F9018D3E76
:1018800059F48091FA0187FF0DC01092FA014111BD
:101890000BC01092F50108C08E3E81F48091FA01D0
:1018A00018169CF3442381F08091FB019091FC0178
:1018B000892B09F05AC01092F40108958F3E49F423
:1018C00047FFF0CF1092F9018091FA018111ECCF1E
:1018D000E0CF803F19F41416ACF3E4CF9091FB01F4
:1018E000893F29F41916F4F61092FB01DBCF8A3FE9
:1018F00019F497FFD7CFF8CF9091FC018B3F29F4D3
:1019000097FFD0CF1092FC01CDCF8C3F19F4191660
:10191000CCF3C8CF9FE0980F983090F4815F990B7B
:1019200021E030E0B90102C0660F771F8A95E2F727
:10193000CB0180959091F80189238093F801B2CF73
:101940008D3F31F48091F6018E7F8093F601AACF0E
:101950008E3F21F48091F6018D7FF7CF8F3F09F004
:10196000A1CF8091F6018B7FF0CF08950E94A52929
:101970009C019091F9018091FA01982B21F030930C
:10198000F3012093F2019091FB018091FC01982BCF
:1019900021F03093F1012093F00187EF91E00C9456
:1019A000EB1CEF92FF920F931F93CF93DF9300D026
:1019B00000D000D0CDB7DEB786E0E7EFF1E0DE0182
:1019C000119601900D928A95E1F7E090F901F0905F
:1019D000FA010091FB011091FC011092F9011092A3
:1019E000FA011092FB011092FC018E2D8F2991F0CB
:1019F0008091F2019091F3010E94BD29AC01909178
:101A0000F501992309F43FC080910B018417150655
:101A100008F447C0802F812B91F08091F0019091C4
:101A2000F1010E94BD29AC019091F401992309F4C0
:101A300077C0809107018417150608F47FC0809154
:101A4000F9019091FA01892B9091FB01892B9091DA
:101A5000FC01892B11F00E94B60C86E0FE01319644
:101A6000A7EFB1E001900D928A95E1F726960FB6A7
:101A7000F894DEBF0FBECDBFDF91CF911F910F91C4
:101A8000FF90EF90089520910C018AE0289F90012B
:101A900011242417350708F0BDCF9F5F9093F501FF
:101AA00002C09F3FD1F7EE2059F00E94600B9FEFDC
:101AB0001E140CF491E0899F802D11248093F9016C
:101AC000FF2059F00E94600B9FEF1F140CF491E06F
:101AD000899F802D11248093FA013091F9013323DD
:101AE00009F498CF2091FA01222309F493CF45EB12
:101AF0003403C0011124992359F09093F90145EB67
:101B0000240390011124332339F03093FA0182CF5A
:101B100081E08093F901F3CF81E08093FA017ACFDD
:101B2000209108018AE0289F90011124241735078D
:101B300008F085CF9F5F9093F40102C09F3FD1F7DB
:101B4000002359F00E94AA0B9FEF10160CF491E0AD
:101B5000899F802D11248093FB01112359F00E944D
:101B6000AA0B9FEF11160CF491E0899F802D112490
:101B70008093FC013091FB01332309F460CF209165
:101B8000FC01222309F45BCF45EB3403C00111248F
:101B9000992359F09093FB0145EB24039001112404
:101BA000332339F03093FC014ACF81E08093FB016D
:101BB000F3CF81E08093FC0142CF86E0E7EFF1E0D4
:101BC000DF011D928A95E9F71092F5011092F40158
:101BD0001092F6010895EF92FF920F931F93CF9307
:101BE000DF93EB01E82FD11110C0442321F0F0E086
:101BF000E356FC4FE4916E2F7E2F8E2FDF91CF9115
:101C00001F910F91FF90EF9008950D2F10E0282F56
:101C100030E0442329F023563C4FF901249130E071
:101C2000F6E0CF9FC0011124EFEFF0E0BF010E946A
:101C30003731AB018C2F90E0880F991FA5E5A49F49
:101C4000B001A59F700D1124861B970B982F990F3B
:101C5000980FBF01601B710B629FD001639FB00D95
:101C6000729FB00D11248B2F9D9FB0011124672FFF
:101C70007727EF01C61BD70BBE01629FE001639F70
:101C8000D00D729FD00D11247F01E91AF108E09E5A
:101C9000B001E19E700DF09E700D1124672F772723
:101CA000E61BF70BE29F8001E39F100DF29F100DE2
:101CB0001124E12F722F4230510599F048F441155B
:101CC000510569F04130510581F0EB2F8D2F07C090
:101CD0004430510569F080F046305105B1F76E2F60
:101CE0008DCFE22F7B2F812FFACFE22F7D2FF7CFE1
:101CF000EB2F822F712FF3CF7B2F822FED2FEFCF82
:101D000041E00C94EB0D0895E0E1F1E08083618304
:101D100008950C94800ECF93DF93762FE901682FFE
:101D2000842F0E94890E798368838A83DF91CF9103
:101D3000089580911C03982F9E7F29F48170826002
:101D400080931C0308958635E8F381708465F8CF8D
:101D500088E090E00C942932CF92DF92EF92FF92CC
:101D60006B017C010E94990EB701A60188E090E00A
:101D7000FF90EF90DF90CF900C944732ECE1F3E0CE
:101D800083E0808311828FEF828383831482A6E4B1
:101D9000B2E012968C911297836012968C936081B8
:101DA0007181828193810C94AC0E80911C0380FF21
:101DB00002C08695089580E00895909120039330A5
:101DC00018F49F5F90932003882351F060911C03C7
:101DD00070911D0380911E0390911F030C94AC0E13
:101DE000089581E00C94DD0E90912003992319F061
:101DF000915090932003882351F060911C037091BF
:101E00001D0380911E0390911F030C94AC0E089546
:101E100081E00C94F40E70E00C945618609111015E
:101E200080911C0380FF0AC08091100123E0829FF3
:101E3000C00111248F5D9C4F0C940B0F80911201F7
:101E40009091130123E0829FF0011124EF5DFC4F7C
:101E5000891750F71182108212828F5F3396F8CF64
:101E600090911C0390FF14C09091120120911301D6
:101E700033E0939FF0011124EF5DFC4F921710F0B7
:101E80000C940E0F8183608342839F5F3396F6CF5D
:101E90000895CF93DF9300D00F92CDB7DEB7909126
:101EA0001C0390FF0AC09E012F5F3F4F0E948B0EC4
:101EB0004B8169818A810E94300F0F900F900F90A3
:101EC000DF91CF910895CF93DF93EC01EC81F0E0A7
:101ED000E856FD4F4491ECE1F3E0628181810E947C
:101EE000490F8C818F5F8C83DF91CF910895CF93C1
:101EF000DF93EC01ECE1F3E0438162818C810E948D
:101F0000490F8C818F5F8C83DF91CF9108950F9360
:101F10001F93CF93DF9300D00F92CDB7DEB78C0124
:101F20008091FD0181110AC09E012F5F3F4F4FEF4D
:101F30006FEF0E948B0E8A818093FD01F80164810E
:101F4000613069F08091FD0140E0662361F040E07E
:101F5000623011F44091FD0180E060E004C06091C6
:101F6000FD0140E080E00E94300FF801848190E0A4
:101F7000019663E070E00E944B3184830F900F90D4
:101F80000F90DF91CF911F910F910895AF92BF9263
:101F9000CF92DF92EF92FF920F931F93CF93DF9335
:101FA00000D00F92CDB7DEB7182FF62E042FE22EF9
:101FB00090911C0390FF3AC0E92FE695AE2FB0E058
:101FC000A757BE4F8C91809346029E7F9230E1F5D9
:101FD0009E012F5F3F4F812F0E948B0E4B816981A5
:101FE0008A810E94300F80911D03811308C0809167
:101FF0001E038F1104C080911F03801729F0809168
:10200000480282608093480210931D03F0921E03E1
:1020100000931F03EE2051F060911C0370911D038B
:1020200080911E0390911F030E94AC0E0F900F90A1
:102030000F90DF91CF911F910F91FF90EF90DF9064
:10204000CF90BF90AF900895823019F400911F0394
:10205000CACF863019F410911D03C5CF8930D9F34A
:10206000893109F6E9518E2F8170D82EE695F0E07E
:10207000E856FC4FA590B490C12CBB24609114018C
:10208000C61618F00E940E0FAECF2C2D30E0A29E87
:10209000C001A39E900DB29E900D112470E00E948D
:1020A0003731812FD11013C0860F40911201420F9A
:1020B000532F511D9A01220F331F240F351F2F5DFF
:1020C0003C4F402F6F2D0E948B0EC394D7CF861BA1
:1020D000ECCFECE1F3E09181282F4381628188E02D
:1020E000890F0C94C60F81E00C946910ECE1F3E0C9
:1020F0009181282F4381628188EF890F0C94C60F4C
:1021000081E00C947610ECE1F3E0628128E0620F4C
:1021100008F46FEF282F438181810C94C60F81E072
:102120000C948310ECE1F3E0628128E0621B08F478
:1021300060E0282F438181810C94C60F81E00C94CC
:102140009210ECE1F3E0438128E0420F08F44FEFF6
:10215000282F628181810C94C60F81E00C94A1101C
:10216000ECE1F3E0438128E0421B08F440E0282F33
:10217000628181810C94C60F81E00C94B01021E043
:102180000C94C60F20E00C94C60FEF92FF921F93A1
:10219000CF93DF93EC0110E0EE24EA94F12C6091F0
:1021A0001401161770F00E940E0F9A818C8190FF17
:1021B00027C08F5F8C83DF91CF911F91FF90EF90AD
:1021C000089520911201422F410F5527551FCA0132
:1021D0009A01220F331F280F391F2F5D3C4F70E0EB
:1021E000C7010E944B31962F8C8140911F03609153
:1021F0001E03199F800D11240E948B0E1F5FCFCFED
:102200008150D8CF8F929F92AF92BF92CF92DF92A0
:10221000EF92FF920F931F93CF93DF93EC018A818C
:10222000BB24BA9480FD02C0BB24B3948C8181117D
:102230000AC081E0B8122AC08091140181508093B5
:10224000FF0181E08C83A12C4CE0942E809114013D
:10225000A816F8F00E940E0F8091FF0191E0B912CC
:1022600061C081115AC08091140181508093FF0197
:102270001C82DF91CF911F910F91FF90EF90DF9023
:10228000CF90BF90AF909F908F9008951092FF01D4
:10229000D8CF00911201CA2CD12C0C0D1D2D111D6F
:1022A000C801880F991F080F191F0F5D1C4FF801F7
:1022B00011821082128234E0E32EF12C812C809165
:1022C000FF01880D8D301CF1692D0E942931892F65
:1022D000082E000C990BC816D90691F480911F03A3
:1022E0008E9DA0018F9D500D1124559547955595B4
:1022F0004795980160911E0380911D030E948B0EEB
:102300008B0CF1E0EF1AF108D1F6A3949FCF87FF71
:10231000DFCF90911401890FDBCF81508093FF01B3
:10232000BC82A7CF90E001966091140170E00E94FA
:102330004B318093FF018C839CCFEF92FF920F93E0
:102340001F93CF93DF93EC018C81811109C081E051
:102350008C831092FE0192E090930F0180930E0106
:10236000809112019091130123E0829FF0011124CA
:10237000EF5DFC4F891768F110E003E060911401F4
:10238000161768F10E940E0F80910E012091FE0138
:10239000280F2093FE0190910F01980F90930F0149
:1023A000191654F4022E000C330B409114014150C5
:1023B000550B2417350734F0819580930E01813039
:1023C00009F41C82DF91CF911F910F91FF90EF9044
:1023D00008951182108212828F5F3396CBCFE12E47
:1023E000F12C70E0C7010E944B3120911201820F45
:1023F000482F50E02091FE01022E000C330BE21614
:10240000F306BCF020910F01022E000C330B2E15A9
:102410003F057CF0809F900111242F5D3C4F40913F
:102420001F0360911E0380911D030E948B0E1F5F8E
:10243000A5CFFA01EE0FFF1FE40FF51FEF5DFC4F74
:10244000118210821282F3CF8F929F92AF92BF922D
:10245000CF92DF92EF92FF920F931F93CF93DF9370
:10246000EC014C81042F10E09801D8010E948F31BB
:102470009B01AC010E94A5314B015C01E0E2F0E060
:10248000E01BF10BA5E5B0E0AC019B010E94A5317A
:102490006B017C019F01DF010E9487319B01AC0130
:1024A0000E94B0319B01AC01280D391D4A1D5B1DF6
:1024B000C701B6010E945F31F22E822F90E039E20F
:1024C0003F1560F143E0249F900111243595279535
:1024D000122F109500E085E5E82EEF188091140189
:1024E000081758F10E940E0F9C8181E0992319F082
:1024F000903219F48FEF80930D0180910D01890FB7
:102500008C83DF91CF911F910F91FF90EF90DF901F
:10251000CF90BF90AF909F908F90089525E530E0C9
:10252000B901681B790B9B01220F331F260F371F40
:1025300037FFCCCF2F5F3F4FC9CF8E2D01FD8F2DA1
:1025400020911201622F600F7727771F9B01220FC6
:10255000331F260F371F2F5D3C4F412F60911E0305
:102560000E948B0E0F5FBACF0F931F93CF93DF9311
:10257000EC0110E000E0909114019017110609F0B1
:102580006CF40E940E0F8C8190E001968170992767
:102590008C83DF91CF911F910F91089520911201AB
:1025A000A801420F511D9A01220F331F240F351F1E
:1025B0002F5D3C4F4C8160911E0380911D039695C9
:1025C0009017110651F04CF0442349F040911F033D
:1025D0000E948B0E0F5F1F4FCECF4423B9F340E014
:1025E000F7CF4F925F926F927F928F929F92AF92AE
:1025F000BF92CF92DF92EF92FF920F931F93CF93F0
:10260000DF93FC016280448081E08483E8E9F2E0AA
:102610007490E7E1F3E0E491812C75E0972EF2E00D
:10262000CF2EDD24D394AA24AA94B12C55245A94F5
:10263000E7190E2F10E080911401881690F0DF91B9
:10264000CF911F910F91FF90EF90DF90CF90BF90AF
:10265000AF909F908F907F906F905F904F900C9471
:102660000E0FE82CF12C82E0861568F09E9CF0019C
:102670009F9CF00D1124ED5FFD4F80911D03808321
:1026800080911E038183411023C09E9CF0019F9C7A
:10269000F00D1124ED5FFD4F138212822091120183
:1026A000C701820F911D9C01220F331F280F391F74
:1026B0002F5D3C4F9E9CF0019F9CF00D1124ED5F1F
:1026C000FD4F4281618180810E948B0E8394B3CF44
:1026D0009E9CE0019F9CD00D1124CD5FDD4F8B812E
:1026E0008823E9F081508B83859DC00111246C8182
:1026F00070E00E943731FB01FF27E856FD4F8491BF
:10270000E82FE719E59DC0011124B8010E94373177
:1027100080911F03689FB00111247A83BFCF0E946C
:10272000043220911F03269521582C9DA0012D9D38
:10273000500D1124452F5527841795070CF0AECF67
:1027400082E0861588F40E940432B5010E944B3164
:1027500088830E94043220911E032695622F70E028
:102760000E944B31280F29839E9CF0019F9CF00D05
:102770001124ED5FFD4F128280911F03893C58F0B8
:1027800088EC9E9CF0019F9CF00D1124ED5FFD4FA5
:102790008483838383CF8431A0F784E1F2CF809157
:1027A0004802089510924802089525E0ECE1F3E014
:1027B000DC0101900D922A95E1F7209146023091BB
:1027C000470240914802FC012583368347830895E0
:1027D000E6E4F2E011828281846082830895ECE174
:1027E000F3E080818E7F80830E94E813E6E4F2E0CC
:1027F0008281816082832FEF80E792E021508040C8
:102800009040E1F700C000000C940E0FECE1F3E003
:1028100080818E7F808360817181828193810E941B
:10282000AC0E0E94E813E6E4F2E0828181608283CC
:102830002FEF80E792E0215080409040E1F700C008
:1028400000000C940E0F60911C03669570E04BE045
:1028500050E085E191E00E941432892B19F481E067
:10286000809347020E94312A9093400280933F0256
:1028700080914802846080934802089590911C03DF
:1028800090FF3AC0917081112DC0926090931C030B
:1028900080914802816080934802662351F06091E4
:1028A0001C0370911D0380911E0390911F030E94D1
:1028B000AC0E60911C03669570E04BE050E085E142
:1028C00091E00E941432892BA1F00E94E81381E06C
:1028D0008093420240911F0360911E0380911D036B
:1028E0000C94C2108B3210F09465D0CF880F982BC7
:1028F000CDCF0E942314EBCF0895682F90911C0335
:10290000969581E0890F8B3208F081E00C943E149B
:1029100081E00C947D14682F90911C0396958FEFA5
:10292000890F09F48AE20C943E1481E00C948B1414
:1029300061E00C943E14ECE1F3E0808181608083DF
:1029400086950C94981480911C0380FD0C940614B9
:102950000C949B1460E00C943E148091450281110C
:1029600033C00E942128811104C00E94C4280E9403
:10297000BE0E0E94A80E60931C0370931D038093EB
:102980001E0390931F038091480283608093480246
:102990006E7F61F40E94BE0E0E94A80E60931C031D
:1029A00070931D0380931E0390931F030E94990E42
:1029B0000E94E81380911C0380FF03C086950E944B
:1029C000AA1481E08093450208951F93CF93DF936B
:1029D000EC01162F8F8180FF0CC0888180FF24C0FE
:1029E00080911C03816080931C03888186950E94DE
:1029F0003E148F8181FF06C0212F4B816A8189811E
:102A00000E94C60F8F8182FF05C08E81882379F0D6
:102A10000E9423148F8183FF03C081E080934202D0
:102A2000DF91CF911F9108950E94EF13E2CF0E9492
:102A3000E813F0CFEF92FF920F931F93CF93DF93A2
:102A400080914702882309F462C080914602E09198
:102A50001C03E695E81BE0934102823009F05EC05A
:102A6000F0E0EC56FD4FE491CE2FD0E003E61FE0FE
:102A700080914202882361F0109242020E94312A22
:102A80009093400280933F021092440210924302BE
:102A90000E94312AE0913F02F09140029C012E1BDE
:102AA0003F0B2F3F3F4798F5209102022223B1F0C0
:102AB000109202022091000230910102821B930BBE
:102AC0008F3F9F4758F4205D3A483093010220938E
:102AD000000280914802886080934802E09043029F
:102AE000F0904402EC0FFD1FF0934002E0933F0290
:102AF0008FE392E0F801099580914302909144029E
:102B0000892B29F4EF2819F081E080930202DF91EC
:102B1000CF911F910F91FF90EF900895863049F467
:102B2000F0E0EF56FD4FE491CE2FD0E007E71FE035
:102B30009FCF893051F4E695F0E0E257FD4FE491E4
:102B4000CE2FD0E005EC10E193CF8F3051F4E69515
:102B5000F0E0E557FD4FE491CE2FD0E002E011E127
:102B600087CF853149F4F0E0E857FD4FE491CE2F4F
:102B7000D0E00DE911E17CCFC8E2D0E004E212E13F
:102B8000883109F475CF833239F4E6E8F2E0C59173
:102B9000D49107E81FE06CCFC4EFD1E004EB12E161
:102BA000843209F465CFC0EDD7E003E81EE085323A
:102BB00009F05ECF8E2F63E00E941D31E92FF0E017
:102BC000ED57FD4FE491CE2FD0E001EF12E150CF51
:102BD000FA01811101C0FB010994CF93DF93C82F43
:102BE000D62F0E94D50E8C1740F00E94D50E8D175F
:102BF00020F4DF91CF910C9488148C2FDF91CF912A
:102C00000C9498141F93CF93DF93EC01FB01128176
:102C100011111BC00E9462278272CD3CFCE5DF07C8
:102C200009F4A0C008F045C0C73CECE5DE0709F494
:102C300085C0F8F4C43C9CE5D90709F475C050F48C
:102C4000C33CDC4509F46DC011E0812FDF91CF91C9
:102C50001F910895C53C9CE5D90709F46AC040E876
:102C600050E163E770E1C63CDC4571F70E94E8156E
:102C7000ECCFCA3CFCE5DF0709F46AC068F4C83C45
:102C8000ECE5DE0709F45FC04FE850E16EE970E162
:102C9000C93CDC4559F3D8CFCB3C9CE5D90709F4B6
:102CA0005CC048E05FE061EF7EE0CC3CDC45F1F2E7
:102CB000CBCFC23DFCE5DF0709F463C098F4CF3CFD
:102CC0009CE5D90709F457C008F451C0C03DFCE5A4
:102CD000DF0709F453C0C13DDC4509F0B5CF6EE014
:102CE00089E01CC0C53D9CE5D90709F450C058F4E3
:102CF000C33DFCE5DF0709F447C0C43DDC4509F0EE
:102D0000A3CF88E135C0C63D9CE5D90709F442C090
:102D10006AE285E2CE35DD4509F096CF0E94ED15D9
:102D200094CF0E94A31491CF45E954E168E874E17F
:102D30009DCF48E854E165E974E198CF43E750E15D
:102D400060E870E193CF4EE950E16FE870E18ECF1B
:102D50004CEB50E16DEA70E189CF4DEA50E16CEB4C
:102D600070E184CF41EF5EE068E07FE07FCF81E0FB
:102D70000E9498146ACF65E082E0D0CF68E086E0D8
:102D8000CDCF64E18FE0CACF67E185E1C7CF62E2D2
:102D900089E1C4CF83E2ECCF80914503817008952F
:102DA00086E090E00C942132682F86E090E00C944D
:102DB0003532E5E4F3E080818470896380830C948C
:102DC000D4168091450386958695869508950E9430
:102DD0002128811104C00E94C4280E94D9160E9493
:102DE000D01680934503803420F0877088638093E9
:102DF000450390914503892F817090FF04C0892F6E
:102E00008695869586950C94E71780914503982FB3
:102E1000969596959695973040F49F5F990F990FE8
:102E2000990F8770892B80934503809145038160BA
:102E3000809345030E94D41680914503869586951C
:102E400086950C94E71780914503982F987F79F029
:102E5000885080934503887F91E009F490E0809149
:102E6000450390FB80F9809345030E94D41680911E
:102E700045038695869586950C94E71780914503C2
:102E800080FD13C0816080934503813019F489E08F
:102E900080934503809145030E94D4168091450399
:102EA0008695869586950C94E7170895809145033D
:102EB00080FF08C08E7F809345030E94D41680E077
:102EC0000C94E71708958091450380FD0C945617E4
:102ED0000C943E1790914503892F8695869586958B
:102EE0008F5F8F7197708830D8F4880F880F880FA4
:102EF000892B8093450380914503887F91E009F4F5
:102F000090E08091450390FB80F9809345030E94F7
:102F1000D416809145038695869586950C94E7177F
:102F200090934503E8CF883008F087E090914503FF
:102F30009770282F220F220F220F922B9093450378
:102F4000987F21E009F420E09091450320FB90F95F
:102F5000909345030C94E7170E94931780914503C3
:102F60000C94D4169C01FB018281882349F12E3BED
:102F7000FCE53F07C9F040F42C3BECE53E0769F067
:102F80002D3B3C4579F00895203C9CE5390791F0B4
:102F900070F0213C3C4589F0089587E00E94AC1711
:102FA00080E0089580E0FACF0E942317F9CF0E94B5
:102FB0000517F6CF0E946317F3CF0E946A17F0CF70
:102FC00081E00895269A2E9808952E980895CF921C
:102FD000DF92EF92FF92CF93C82F883040F5811196
:102FE00027C0809180008F7D809380000E94E5172C
:102FF0002C2F30E0AFEFBFEF0E948F3127E030E0A1
:1030000040E050E00E945F31C9012C3764E136078F
:10301000A8F469E070E00E94373170938B006093F0
:103020008A00CF91FF90EF90DF90CF900895C7E096
:1030300080918000806280938000DACF2A50374DE3
:103040004F4F5F4F942F832F722F662725EF38E263
:1030500041E050E00E945F3169017A01CA01B90183
:103060000E940D319B01AC01C701B6010E940D31D8
:10307000672F782F892F99276115710521E0820725
:10308000910559F66FEF7FEFC8CF08950E94E217C0
:1030900082E28093800089E1809381008FEF9FEF2F
:1030A00090938700809386000C94E716539A4BB157
:1030B000477F5BB15860EFB7F8949B01220F331F35
:1030C000260F371F280F391F2817390741F4EFBF84
:1030D0008FE594E00197F1F700C000000895DC014E
:1030E0006D91CD0178E05BB9000000C067FF4BB97E
:1030F000660F000000C000C000C04BB900C07A9548
:1031000091F7E2CF0F931F93CF93DF93C42FD22F6A
:10311000FC0182818823C9F040934B020E94A529BB
:1031200090934A028093490280E28C0F883008F025
:1031300050C0C77081E001C0880FCA95EAF7DF91DF
:10314000CF911F910F910C94491F10914B021413B2
:1031500035C08091490290914A020E94BD29883C65
:10316000910560F5C0E2CD0F1D17B9F080E2810F27
:10317000883040F4177081E001C0880F1A95EAF793
:103180000E94501FC83048F481E09D2F977001C005
:10319000880F9A95EAF70E94491F802F0E94411FCD
:1031A000C830B8F4D77081E001C0880FDA95EAF72B
:1031B000DF91CF911F910F910C94501F80E28C0FE3
:1031C000883038F4C77081E001C0880FCA95EAF7EB
:1031D000EFCFDF91CF911F910F9108950F939C0135
:1031E000CB01243F4CE5340759F1A8F4293DFCE517
:1031F0003F0701F12A3D4CE53407D1F1283D3C451C
:1032000091F406E221EE41EE68ED7CE50E94821821
:1032100080E00F910895263FFCE53F07E9F0B0F00C
:10322000273F3C45F9F0FC018281882339F1109257
:103230004B02EFCF07E225EE45EE69ED7CE5E6CFE8
:1032400006E221EE40EE64EF7CE5E0CF07E225EEFA
:1032500044EE65EF7CE5DACF06E221EE42EE66EF62
:103260007CE5D4CF07E225EE46EE67EF7CE5CECFD6
:1032700008E221E045EE6AED7CE5C8CF81E0C9CFE8
:10328000CF93DF93EC01FB018281882309F419C1FC
:10329000C230FCE5DF07C0F1C6319CE5D90730F04C
:1032A0009E012B5F3C452930310570F50E9439287D
:1032B0009093050380930403C031ECE5DE0709F425
:1032C000CFC008F05BC0C8308CE5D80709F4B6C0A1
:1032D00088F5C430ECE5DE0709F4A8C0C0F4C230BC
:1032E0008CE5D80709F49CC0809104038260C33048
:1032F000DC4509F498C080910403909105030E9475
:1033000047280E94C22180E0DF91CF9108958091EB
:1033100004038061C630ECE5DE0709F484C08091C7
:1033200004038860C730DC4508F47DC08091040345
:10333000806279C0CC308CE5D80709F489C070F47C
:10334000809104038C60CA30ECE5DE0709F46BC0A1
:1033500008F478C0809104038E7F65C0CE308CE580
:10336000D80709F479C0809104038B7FCF30DC4506
:1033700008F459C0809104038F7E55C0CC3FECE522
:10338000DE0709F457C030F5C3318CE5D80709F4DE
:103390006FC078F4C131ECE5DE0709F465C0C231D5
:1033A000DC4509F0A8CF0E94C221809104038F77E9
:1033B0003AC0C5318CE5D80709F462C008F476C07C
:1033C000809105038160CB3FDC4509F094CF809369
:1033D000050391CFC115FDE5DF0709F44DC088F461
:1033E000809105038D7FCE3F9CE5D90781F38091C5
:1033F00005038E7FCF3FDC4550F38091050383604A
:10340000E6CFC230FDE5DF0709F459C008F444C037
:1034100080E0C330DD4509F06ECF0E94C6286BCF37
:103420008091040381608093040365CF809104033D
:103430008460F9CF809105038260C9CF8091040335
:103440008064F1CF0E94C221809104038068EBCF99
:10345000809104038D7FE7CF80910403877FE3CFC2
:10346000809104038F7DDFCF809104038F7BDBCFBE
:1034700080910403837FD7CF809105038C7FA7CFF2
:103480008091040382FB992790F921E0922790FB19
:1034900082F990FB83F9C7CF80910503982F90950F
:1034A00091708E7F892B90FB81F991CF0E94C22170
:1034B00090910403892F97FB87F98058B4CF81E05E
:1034C000ACCF81E021CFCF93DF93EB0186319C45D8
:1034D00011F50E9462279A81992399F08A7A91E0E6
:1034E00009F490E090934C02811109C089E20E9496
:1034F0001C270E94B22780E0DF91CF91089585E3D9
:10350000F6CF80914C02811104C089E20E942327EA
:10351000F0CF85E3FBCF81E0EFCF62E070E080E2A7
:1035200091E00C946F1B62E070E080E291E00C94FB
:10353000781B0E94CF13882361F089E592E00E94F6
:10354000D51381E090E00E94511C892B11F40C945A
:10355000D213089580915802883039F460E089E5EB
:1035600092E00E94E514109258020895CF93DF93E1
:10357000D62FC72F0E94991A90E080E00E94511C1C
:10358000009739F5ED2FFC2FDC01AD5ABD4F2C9182
:103590002193019685309105B9F70E94CC168823B6
:1035A000B1F00E94E116809352020E94162A6E5FCB
:1035B0007F4F8F4F9F4F60934E0270934F028093C7
:1035C00050029093510281E0DF91CF91089580E005
:1035D000EACF80E0F9CFCF93DF93D62FC72F0E9499
:1035E000AA1A60914E0270914F0280915002909100
:1035F00051020E94F929ED2FFC2F90E080E02191EB
:10360000DC01AD5ABD4F2C93019685309105B9F779
:1036100080915202DF91CF910C94E7178EE1489B85
:1036200002C08150E1F7489BFECF0895589880E290
:103630008A95F1F7589A0895FC013BE03A95F1F725
:1036400020E090E080E031E040E14A95F1F7880F1A
:10365000489B02C08160232742E04A95F1F70000B1
:1036600040E14A95F1F79F5F6913EECF90E19A959B
:10367000F1F799B132E03A95F1F7000040E14A954F
:10368000F1F7917092272081920F90830895EF9225
:10369000FF920F931F93CF93DF930F92CDB7DEB7B7
:1036A00019828C017C01E60EF11C0E151F0561F4D8
:1036B00081E09981911180E00F90DF91CF911F916E
:1036C0000F91FF90EF9008950E940E1B68E0CE01CD
:1036D00001960E941C1BF80181938F01E6CF909305
:1036E00063028093620260936102509A589A08952F
:1036F0009093630280936202609361025098589A9B
:10370000E89AE9E6F0E080818C7F8083089561503B
:10371000770B91E001C0990F6A95EAF720E031E05C
:10372000911108C0222391F0589A80E28A95F1F70E
:1037300058980895492F482339F0589A232740E292
:103740004A95F1F79695ECCF5898F9CF5898EDCF68
:10375000FF920F931F93CF93DF93EC018C01060F21
:10376000111DC017D10731F4DF91CF911F910F9137
:10377000FF900895F9900E94161B68E08F2D0E941B
:10378000871BEFCF1F920F920FB60F9211240F934A
:103790001F932F933F934F935F936F937F938F93D9
:1037A0009F93AF93BF93EF93FF93CF93DF930F92CA
:1037B000CDB7DEB719820E940E1B67E0CE010196DD
:1037C0000E941C1B082F069506950695982F92952A
:1037D0009570202F2570920F292F2370969596951E
:1037E0008770920F891344C08981811141C08091F3
:1037F00061028017E8F120E12A95F1F7589A509A72
:1038000082E08A95F1F700C0A8E00A9FC001112468
:103810000091620210916302080F191F5898F80175
:103820006581662321F0868197810E94A81B0E94F2
:10383000161BF0E1FA95F1F758985098589A20E144
:103840002A95F1F7D80112966C911297662331F1FF
:1038500013968D919C910E94471BD801ED91FC918C
:10386000882311F088E001C082E080830E940E1B53
:103870000F90DF91CF91FF91EF91BF91AF919F9109
:103880008F917F916F915F914F913F912F911F91F8
:103890000F910F900FBE0F901F901895ED91FC9116
:1038A000E1CF0F931F93CF93DF93209161022817ED
:1038B00019060CF471C08C0193E0000F111F9A954A
:1038C000E1F7C0916202D0916302C00FD11FF8945A
:1038D000509A589825E02A95F1F70000982F969570
:1038E00095708570980F892F837096959695980F8F
:1038F000092B0E94161B00C067E0802F0E94871BC7
:1039000080E18A95F1F75098589A489B17C087E054
:1039100090E0489915C06D81662321F18E819F81C9
:103920000E94471B81111EC0509A589AE881F98164
:1039300082E08083789482E090E00DC000C0E5CF03
:10394000019771F4509A589AE881F98181E0808357
:10395000789481E090E0DF91CF911F910F910895CD
:1039600000C0D7CF0E940E1B20E22A95F1F758988D
:10397000509A80E18A95F1F76A81662321F08B8164
:103980009C810E94A81B0E94161BE881F98110826D
:10399000789490E080E0DFCF84E090E0DCCF9093FB
:1039A0006902809368020895E0916802F0916902CB
:1039B000309721F00190F081E02D099480E0089586
:1039C000E0916802F0916902309721F00280F38162
:1039D000E02D09940895E0916802F0916902309712
:1039E00039F022E0DC012C930480F581E02D09946C
:1039F000089520916602309167022817390771F007
:103A00009093670280936602E0916802F0916902E8
:103A1000309721F00680F781E02D099408952091D8
:103A20006402309165022817390771F0909365029E
:103A300080936402E0916802F0916902309721F06E
:103A40000084F185E02D099408950E94B1296093C6
:103A5000790270937A0280937B0290937C02609348
:103A6000750270937602809377029093780208959E
:103A700085B7806885BF85B7806885BF089508953C
:103A800008950C943F1D08950C94431D0E94381D09
:103A90008FE198E20E944B2A0E94401D0C94411D28
:103AA0000C943809089508950E94521D0C94531DDA
:103AB0000E949C290E94F0290E94CD070E94E716CF
:103AC0000E94AD140C94441DAF92BF92CF92DF922E
:103AD000EF92FF920F931F93CF93DF93CDB7DEB793
:103AE0002A970FB6F894DEBF0FBECDBF0E947808AC
:103AF00081110E94251D8BE6A82E82E0B82E10E0D1
:103B000000E0C02E802F0E94A407E82EF501F1905E
:103B10005F01F81609F452C08091F80281FD0E94FD
:103B2000AA078F2D8E25D12CFF24F394982F9F2147
:103B300009F43FC00E94501D882399F0DE82CF8295
:103B4000EF2081E009F480E088870E94A529816048
:103B5000782F9A8789874E815F8168858A850E9440
:103B6000061EF801E559FD4F8081F826F0820E947B
:103B70001A150E9445180E94D10C0E94D41C9091E5
:103B80006A02891791F10E94D41C80936A022A96D6
:103B90000FB6F894DEBF0FBECDBFDF91CF911F915E
:103BA0000F91FF90EF90DF90CF90BF90AF900C946B
:103BB0006405D394FF0CF7E0DF12B8CF0F5F1F4FFF
:103BC0000A30110509F09DCF8FEF89838A831B820C
:103BD0000E94A5298160782F9D838C8349815A8119
:103BE0006B818D810E94061EC2CF2A960FB6F89473
:103BF000DEBF0FBECDBFDF91CF911F910F91FF9020
:103C0000EF90DF90CF90BF90AF900895DF92EF924A
:103C1000FF920F931F93CF93DF93CDB7DEB72B9710
:103C20000FB6F894DEBF0FBECDBF7A878B87F42E18
:103C3000052F162FE72ED82E61110E9482271E8293
:103C40001D827E2DEC82DD824F2D502F612F8D2D18
:103C50009E812B960FB6F894DEBF0FBECDBFDF91CD
:103C6000CF911F910F91FF90EF90DF900C9438242B
:103C7000FC01808191810C94EE26CF93C82F88237C
:103C800009F490C08238C1F40E94D41C81FD8AC01E
:103C900089E30E941C270E94B2272FEF81EE94E057
:103CA000215080409040E1F700C0000089E30E946D
:103CB0002327CF910C94B2278338A1F40E94D41CFF
:103CC00080FD70C083E50E941C270E94B2272FEF61
:103CD00081EE94E0215080409040E1F700C0000068
:103CE00083E5E5CF8438A1F40E94D41C82FD5AC03C
:103CF00087E40E941C270E94B2272FEF81EE94E0F8
:103D0000215080409040E1F700C0000087E4CFCF11
:103D10008CEF8C0F813AB8F48C2F0E94D70A811156
:103D200041C06C2F80913001909131010E94DD28BB
:103D3000882329F08C2F0E9423270E94B2278C2FE2
:103D40000E941C27B6CF80E28C0F883048F4C770E1
:103D500081E001C0880FCA95EAF70E946527A9CFC4
:103D6000EBE5EC0FE33040F4F0E0EE51FE4F8081E4
:103D700090E0CF910C94F91CE8E5EC0FE73150F49A
:103D8000F0E0EE0FFF1FEC54FE4F80819181CF9148
:103D90000C940F1DCD3E30F08C2F0E94E30BCF9181
:103DA0000C94B60CCF910895882309F452C0823840
:103DB00071F40E94D41C81FF4CC089E30E941C272F
:103DC0000E94B22789E30E9423270C94B2278338EC
:103DD00059F40E94D41C80FF3CC083E50E941C273C
:103DE0000E94B22783E5EFCF843859F40E94D41C97
:103DF00082FF2FC087E40E941C270E94B22787E41D
:103E0000E2CF9CEF980F913AF0F290E2980F983041
:103E100050F4877091E001C0990F8A95EAF7892FD5
:103E20000E946B27D2CF9BE5980F933020F490E04F
:103E300080E00C94F91C98E5980F973120F490E0FD
:103E400080E00C940F1D8D3E20F00E943D0C0C94E0
:103E5000B60C08951F93CF93DF93182FEB010E94A8
:103E60003D1E209731F4812FDF91CF911F910C944B
:103E7000D41E8FE99FE00197F1F700C00000219761
:103E8000F0CF70E060E0893311F460E570E00C94ED
:103E90002A1F882321F00E9465270C94B2270895D9
:103EA000882321F00E946B270C94B2270895BF92BB
:103EB000CF92DF92EF92FF920F931F93CF93DF93F6
:103EC0006C01D62FC72FFC011281058102950F705E
:103ED0000E943A27E82E8823A1F0E12E112389F0D1
:103EE0008C2F807F803429F080E28D0FE12C883088
:103EF00040F082E00E9403280E943A2791E0E82ED9
:103F0000E926BC2EB2949FE0B922EB2DF0E0E657F3
:103F1000FD4C0C9481310C2F0F70C07F11F0029575
:103F2000007F1123A9F0002359F080E28D0F883023
:103F300010F0D11109C0802F0E9465270E94B2277E
:103F40008D2F0E943D1E14C0802F0E947527F6CF32
:103F50008D2F0E94D41E002359F080E28D0F8830EF
:103F600010F0D1112CC0802F0E946B270E94B22725
:103F70002B2D2850330B2430310520F40E94D41C03
:103F80000E946405EE2009F49EC10E94362780FD40
:103F90009AC1F60112820E9430270E94BC25C601F8
:103FA0000E9484210E943027DF91CF911F910F91B1
:103FB000FF90EF90DF90CF90BF900C94DD25802F85
:103FC0000E947B27D3CFFC2FFF70FF2EC07FC03213
:103FD00019F0F29480EFF822DD2369F0D13049F135
:103FE000112391F1002351F1F601858180FFA8CFC3
:103FF0008F70858323C0112381F0011106C00E94B8
:1040000095278F290E94491FB3CF0130C1F70E9425
:1040100095278F290E949B27ABCF011106C00E94D4
:10402000A8278F2D0E94501FA3CF013009F4A0CFE5
:10403000F6CF112329F0063008F09ACF8F2DE2CF6A
:10404000053008F095CFEDCF002359F3D93349F46B
:10405000FFEF27EE33E0F15020403040E1F700C0A1
:1040600000008D2F0E94D41E83CF8C2F86958695BD
:10407000837069F0813009F07BCF8D2F9C2F937076
:10408000111102C090E080E00E940F1D71CF8D2FB2
:104090009C2F9370111102C090E080E00E94F91CE7
:1040A00067CF8D2F112329F00E94E30B0E94B60CDD
:1040B0005FCF0E943D0CFACF8C2F837009F041C076
:1040C000111156CF4D2F429546954770440F440F1E
:1040D0000D2F0F7010E030E020E0042E04C0000F20
:1040E000111F221F331F0A94D2F760E070E0CB014A
:1040F000D4FF0FC06FE070E080E090E004C0660F76
:10410000771F881F991F4A95D2F760957095809503
:104110009095C695C695C370602B712B822B932BFF
:10412000C23049F058F4C13019F00E946E2520CFFA
:104130000E945C251DCF0E9480251ACF0E945A251F
:1041400017CF8695112311F08C2F8170882309F4E5
:104150000FCF4D2F429546954770440F440F0D2FBA
:104160000F7010E030E020E0042E04C0000F111F9B
:10417000221F331F0A94D2F760E070E0CB01D4FF16
:104180000FC06FE070E080E090E004C0660F771F22
:10419000881F991F4A95D2F76095709580959095E4
:1041A000C695C695C370602B712B822B932BC230A2
:1041B00049F058F4C13019F00E943326D9CE0E943C
:1041C0002126D6CE0E944526D3CE0E949625D0CE5B
:1041D000CF70112329F08C2F0E94BC258D2F12CF78
:1041E0008D2F0E94501F8C2F0E94DD25C1CED23F03
:1041F00089F160F4D03FC9F0D13F29F1112309F4CE
:1042000042C001119DCE8C2F8F7121C0D33F39F157
:10421000D43FA1F7112369F1CF718C2F0E94BC25E7
:1042200063E08C2F0E94E827A3CE112341F00530D4
:1042300008F09ECE8C2F8F710E94002699CE0630FA
:1042400008F096CEF7CF8C2F8F71112369F20E9460
:10425000BC258ECE8C2F8F711123C9F3C5CF1123AE
:1042600029F08C2F8F710E94A72582CE0E94A22553
:104270007FCE81E00E940328023008F479CE82E0EC
:104280000E94032875CE002359F0D93309F0E9CEF6
:104290008FEF97EEE3E081509040E040E1F7DFCE12
:1042A0008C2F8F71A1CF4C2F4F706D2FC6010E94A4
:1042B0006C050E94D2245CCE4C2F4F706D2FC6012E
:1042C0000E946F0555CEDF91CF911F910F91FF9006
:1042D000EF90DF90CF90BF9008950F931F93CF93EF
:1042E000DF93EC01688179818A810E94F8268C0134
:1042F0000E9457260E945925B801CE01DF91CF9127
:104300001F910F910C94571FCF93DF93EC018B817A
:104310009C81892B29F08881998189238F3F59F4C9
:10432000DF91CF910895CE010E946D21CE01DF91E2
:10433000CF910C94F503CE010E942B048111F3CF91
:104340000E943A27882361F38A81882349F382E017
:10435000DF91CF910C94032890E080E00E94F91C3B
:1043600090E080E00E940F1D0E9482270E94922709
:104370000E94B2270E94DD0D0C94B60C0E942A27E1
:104380000C94AC210E9472270C94BE21E92FE29577
:10439000EF70E250EE3070F4F0E0E656FD4C0C9415
:1043A0008131803F19F020F4883E20F481E00895A7
:1043B000843FE1F380E00895883EC0F3813FD1F768
:1043C000F5CF93FB882780F908950E94EE260C9480
:1043D000C621CF93DF9300D000D00F92CDB7DEB7C8
:1043E0000F900F900F900F900F90DF91CF91089545
:1043F000CF93DF9300D000D000D0CDB7DEB72696A4
:104400000FB6F894DEBF0FBECDBFDF91CF910895F8
:104410001F93CF93DF93C0917E0216E080917F02BD
:104420008C1304C0DF91CF911F910895D0E01C9FA1
:10443000F0011D9FF00D1124E058FD4F4081518186
:1044400062817381848195810E94F8212196C770D1
:10445000E5CF4091B0025091B1026091B2027091EB
:10446000B3028091B4029091B5020C94F8211F938D
:10447000CF93DF938091B502807FA9F48091B2023F
:10448000882389F080917E02C0917F026091B00202
:104490007091B102A091B302B091B402D62FD7238C
:1044A00016E0C81304C0DF91CF911F91089590E0EA
:1044B000109711F0DF3F19F401968770F2CF189F23
:1044C0009001199F300D1124F901E058FD4F4181F1
:1044D0004713F2CF40814613EFCF42814111ECCF19
:1044E000438154814A1B5B0B483C510528F780915E
:1044F000B5028F7080618093B502F901EB57FD4FD3
:1045000080818F708061808380EB92E00E948421A3
:10451000DF91CF911F910C940822AF92BF92CF925E
:10452000DF92EF92FF920F931F93CF93DF93CDB75C
:10453000DEB761970FB6F894DEBF0FBECDBF8C011A
:1045400085E0F801DE011D9601900D928A95E1F754
:10455000F80140815181E28080EBC82E82E0D82EA4
:104560006091B3027091B4026115710509F461C1E3
:104570009091B0022091B102892F82238F3F09F4DC
:1045800058C1A380B480F090B202F501E61BF70B8E
:10459000FF2009F4FCC08091B502382F307FE83C41
:1045A000F10508F0B2C0311179C0FE2C251323C0EB
:1045B000941321C0E1101FC08F7080618093B502F9
:1045C0000E942922C6010E9484218091B502F8012F
:1045D00085838F2D61960FB6F894DEBF0FBECDBFD9
:1045E000DF91CF911F910F91FF90EF90DF90CF90CF
:1045F000BF90AF900895AB2829F0842F85238F3F7B
:1046000009F033C180E0F82FF170DF2E80FF3CC04D
:1046100080917E0220917F0236E0821315C04D8783
:104620005E878D859E850E94EE26292F22952F700C
:104630002230F0F0243018F59F70F1F0F8019581E8
:10464000907FD1F4D12C1EC090E0389FF001399FAB
:10465000F00D1124E058FD4F6181651306C06081A3
:10466000641303C062816E110FC001968770D5CFAD
:104670009F7011F0882331F3805E883018F3C801F1
:104680000E948421FD2CA5CFEE2009F4A2CF8091B9
:10469000B50281608093B502F12C9BCF251306C033
:1046A000941304C0F801EE2009F48DC04D875E8795
:1046B0008D859E850E94E521882319F1EE2009F160
:1046C0008091B502803270F02091B0023091B10239
:1046D00038872F831986BB86AA868C87CE010796DA
:1046E0000E94842186E0F801A0EBB2E001900D92D7
:1046F0008A95E1F70E9437220E942922FF24F39431
:1047000068CFC8010E948421F9CF311113C07A2DDE
:10471000B98AA88A6E2D89890E94E92180EB92E0EE
:104720000E94842186E0F60111928A95E9F70E94A1
:104730002922B2CF25130FC094130DC0E1100BC076
:10474000F8018583C8010E94842186E0F601119258
:104750008A95E9F73ECF4D875E878D859E850E94BD
:10476000E521882371F2EE2061F28091B50280325A
:1047700008F4B8CF2091B0023091B1023A83298376
:104780001B82BD82AC828E83CE010196A9CFE83C0C
:10479000F10508F041C0FE2CEE2009F4B2CF25133C
:1047A0002AC0941328C08091B50280FD1BC0982FA9
:1047B000907FC1F0F8018583903F31F0982F907F72
:1047C000905F8F70892B8583C8010E94842186E0C9
:1047D000F801A0EBB2E001900D928A95E1F70E94FA
:1047E0002922F7CE86E0F801A0EBB2E001900D920D
:1047F0008A95E1F7EECE4D875E878D859E850E9476
:10480000E52181116FCF8091B50281608093B5025F
:10481000C8010E948421DDCE7A2DB98AA88A6E2D26
:1048200089890E94E92186E0F60111928A95E9F7CB
:10483000D6CFEE2009F465CF4D875E878D859E85A6
:104840000E94E521F82E882309F45BCF86E0F80169
:10485000A0EBB2E001900D928A95E1F780EB92E037
:104860000E94381E0E943722BACF81E08E25CBCE1F
:104870001F93CF93DF93CDB7DEB72C970FB6F89485
:10488000DEBF0FBECDBF4F83588769877A878B877E
:104890009C87CE0107960E948D22882369F08A8525
:1048A0009B85892B39F04F815885842F85238F3F35
:1048B00009F071C016E05FC086E0FE013796DE01A8
:1048C000119601900D928A95E1F78A859B85892B37
:1048D00089F38F81988589238F3F61F320917F022F
:1048E00030E0C90101968770992740917E024817F0
:1048F000190671F40E94C22110927F0210927E026A
:1049000086E0E0EBF2E0DF011D928A95E9F7D2CF75
:1049100096E0929FD001939FB00D1124A058BD4FF7
:10492000FE01319601900D929A95E1F780937F02F6
:104930000E940822BFCF819FC001112480589D4F43
:104940000E948D228823E9F0E0917E021E9FF001F3
:104950001124E058FD4F408151816281738184812F
:1049600095810E94F82180917E0290E001968770E7
:10497000992780937E0280917E0290917F02891315
:10498000DACF2C960FB6F894DEBF0FBECDBFDF9105
:10499000CF911F91089569857A858B859C850E94AA
:1049A000F82188CFEF92FF920F931F93CF93DF935D
:1049B0008C01892B81F0F12CEE24E394E8012196FF
:1049C000F8018491843770F4843008F05FC081303E
:1049D000B1F08230A1F1DF91CF911F910F91FF9043
:1049E000EF900895853709F44CC008F43DC09CE76A
:1049F000980F903780F78F770E94D41E49C00E5FC2
:104A00001F4FFE01849190E2980F983060F48770F8
:104A1000FE2D01C0FF0F8A95EAF78F2F0E94852790
:104A20000E94B22702C00E943D1E8F2D815030F29D
:104A3000EFE9FFE03197F1F700C00000F7CF0E5F1C
:104A40001F4FFE01849190E2980F983050F48770C8
:104A5000FE2D01C0FF0F8A95EAF78F2F0E948B274A
:104A6000DFCF0E94D41EE1CF0E5F1F4FFE01C49125
:104A7000C150D8F28FE99FE00197F1F700C0000024
:104A8000F7CF0E5F1F4FFE01F490CFCF0E943D1E67
:104A90008E01CBCF08950C944A250E944B2560933C
:104AA000E7027093E8028093E9029093EA020C9483
:104AB000AC2108950C944D250F931F930091E702AC
:104AC0001091E8022091E9023091EA02602B712BEB
:104AD000822B932B1F910F910C944D250F931F93B5
:104AE0000091E7021091E8022091E9023091EA0278
:104AF00060237123822393231F910F910C944D25E2
:104B00000F931F930091E7021091E8022091E902B0
:104B10003091EA0260277127822793271F910F9116
:104B20000C944D250C944A250C9492250E949425B2
:104B30006093E3027093E4028093E5029093E602AF
:104B40000C94AC2160E070E0CB010C9496250F939F
:104B50001F9341E050E060E070E08A019B0104C0D7
:104B6000000F111F221F331F8A95D2F7C901B80108
:104B70001F910F910C9496250F931F9341E050E0E5
:104B800060E070E004C0440F551F661F771F8A95D0
:104B9000D2F78091E3029091E402A091E502B091F6
:104BA000E6028A019B01082B192B2A2B3B2BC901FA
:104BB000B8011F910F910C9496250F931F9341E01C
:104BC00050E060E070E004C0440F551F661F771F7F
:104BD0008A95D2F7CB01BA01609570958095909532
:104BE0000091E3021091E4022091E5023091E60287
:104BF00060237123822393231F910F910C94962598
:104C00000F931F9341E050E060E070E004C0440F58
:104C1000551F661F771F8A95D2F78091E302909106
:104C2000E402A091E502B091E6028A019B01082707
:104C300019272A273B27C901B8011F910F910C940E
:104C400096250F931F930091E3021091E4022091A7
:104C5000E5023091E602602B712B822B932B1F9182
:104C60000F910C9496250F931F930091E3021091DE
:104C7000E4022091E5023091E60260237123822351
:104C800093231F910F910C9496250F931F930091DE
:104C9000E3021091E4022091E5023091E6026027E0
:104CA0007127822793271F910F910C9496250895C1
:104CB00027E0929F800D1124982F977041E001C04A
:104CC000440F9A95EAF786958695869595E0899F93
:104CD000F0011124EA54FD4F90E080E070E0519122
:104CE000DF0111979B01082E02C0369527950A9483
:104CF000E2F7217021952527242325272C9301965F
:104D00008530910561F7089527E0929F800D112469
:104D1000982F977086958695869525E0829FF0015D
:104D20001124EA54FD4F50E040E080E0219130E052
:104D3000092E02C0369527950A94E2F72170332791
:104D4000042E01C0220F0A94EAF7822B4F5F5F4FB7
:104D50004530510559F70895BF92CF92DF92EF92F7
:104D6000FF920F931F93CF93DF938C01C090E302C8
:104D7000D090E402E090E502F090E6028091E70234
:104D80009091E802A091E902B091EA02C82AD92ADA
:104D9000EA2AFB2ACFE1D0E0BC2ED701C6010C2EB7
:104DA00004C0B695A795979587950A94D2F780FD8C
:104DB0000EC0219788F7B12C8B2DDF91CF911F91D9
:104DC0000F91FF90EF90DF90CF90BF900895B801C2
:104DD0008C2F0E948C05019761F3EECFCF93DF9368
:104DE000EC010E94AC26BE01DF91CF910C948C05A2
:104DF0001F93CF93DF93EB0190917D02992331F0C4
:104E0000CB01DF91CF911F910C94EE26882379F08E
:104E1000CB010E94AC26182F682FCE010E94582685
:104E2000BE01812FDF91CF911F910C948C05CB0196
:104E30000E948426182FF4CF682F80913001909122
:104E400031010C941329682F809130019091310128
:104E50000C94152980913001909131010C941729FF
:104E60008091EB0285958595859508958091EB025B
:104E7000877008959091EB02977081E009F480E0CB
:104E800008959091050392FB222720F9281751F0ED
:104E900080FB92F9909305038091040390910503A0
:104EA0000C94472808958091050382FB882780F998
:104EB00091E089270C94412781E00C94412780E000
:104EC0000C9441278091F70208959091F702892B65
:104ED0008093F702089580959091F702982390931C
:104EE000F70208951092F70208959091F602892B27
:104EF0008093F602089580959091F60298239093FE
:104F0000F60208951092F60208959091F502892B09
:104F10008093F502089580959091F50298239093DF
:104F2000F50208951092F50208958091EC0208951B
:104F300008950C9498279091050392FD08C09091D4
:104F4000EC02981721F08093EC020C9499270895B5
:104F50008091EC02882329F01092EC0280E00C94FE
:104F600099270895E0913001F09131018091F70285
:104F70008083E0913001F091310180819091F602BF
:104F8000892B8083E0913001F091310180819091F3
:104F9000F502892B80839091EC02992381F0E091B6
:104FA0003001F09131018081892B80838091300123
:104FB000909131010E94CB2881110E94A8278091F5
:104FC0003001909131010C94E01C08950C94E52778
:104FD0009091050392FD10C098E0899F90011124E3
:104FE000622B6093EB020E94BC258091EB028595B9
:104FF000859585950C94E6270C94BC251092EB02C0
:1050000080E00C94E6279091EB02809589238093B1
:10501000EB02282F277039F4282F082E000C330BB1
:105020009217130621F49091050392FF07C085950E
:10503000859585950E94DD250C94FE27089580E0D6
:10504000089590E080E00E942F3221E08A3E9E4F3A
:1050500009F020E0822F089582E090E00C94213244
:1050600083E090E00C942132682F83E090E00C9470
:105070003532CF9384E090E00E942132C82F82E243
:1050800090E00E942132982F8C2FCF910895CF93DA
:10509000C92F682F84E090E00E9435326C2F82E2A5
:1050A00090E0CF910C943532AB01BC018FE090E0E1
:1050B0000C944732AB01BC0183E190E00C94473281
:1050C00060E070E0CB010C945A286AEE7EEF90E02D
:1050D00080E00E94533260E082E090E00E9435322E
:1050E00060E083E090E00E9435321092E702109277
:1050F000E8021092E9021092EA0260E084E090E097
:105100000E94353260E082E290E00E94353260E039
:1051100085E090E00E94353260E086E090E00E94F9
:1051200035326FEF87E090E00E94353240E050E08A
:10513000BA0188E090E00E94473260E08DE090E0A4
:105140000E94353240E050E0BA0188E190E00E94D0
:10515000473260E087E190E00E94353240E050E065
:10516000BA018CE190E00E94473270E060E080E29A
:1051700090E00E94533240E050E0BA0188E190E0B4
:105180000E9447320C943C030C946528682F8EE0F3
:1051900090E00C9435329C012E5F3F4FAC01485F8C
:1051A0005F4F80E02417350709F40895F9019191C4
:1051B0009F019923B9F38F5FF5CF662349F0FC0176
:1051C000329608962191261729F0E817F907D1F7AA
:1051D00080E0089581E008959C01FC0132969FEFE4
:1051E00080E04191461751F09F3F19F4411101C0F1
:1051F000982F8F5F8630A9F79F3F09F40895290FF4
:10520000311D97FD3A95F90162830895FC013296AC
:1052100008962191261303C0DF0111971C92E8170D
:10522000F907B9F708950C94EC280C940629029616
:1052300026E0FC0111922A95E9F708950895089552
:105240000C941F2980915203843061F10E9420291F
:1052500080E00E94E71780E00E9464051092F90246
:1052600088E190E020E40FB6F894A8958093600060
:105270000FBE2093600083B7817F846083BF83B7B4
:10528000816083BF7894889583B78E7F83BF0FB684
:10529000F894A895809160008861809360001092D6
:1052A00060000FBE08950895CF930E941E290E94AA
:1052B00078080E945329C0E08C2F0E94A407811116
:1052C00005C0CF5FCA30C1F7CF91089581E0FCCF10
:1052D00008950C9468290E94C2210E94E7160E943A
:1052E000D41C0E9464050C9469291F921FB61F925A
:1052F00011248F939F93AF93BF938091F9028111F3
:1053000013C08091460390914703A0914803B09148
:1053100049034196A11DB11D809346039093470315
:10532000A0934803B0934903BF91AF919F918F9190
:105330001F901FBE1F90189582E084BD93E095BD1D
:105340009AEF97BD80936E0008952FB7F8948091DF
:10535000460390914703A0914803B09149032FBFA2
:1053600008952FB7F8946091460370914703809198
:105370004803909149032FBF08959C014FB7F894BB
:105380008091460390914703A0914803B09149034F
:105390004FBF821B930B089578941F921FB61F92E4
:1053A00011248F939F93AF93BF9380914603909165
:1053B0004703A0914803B09149030196A11DB11D77
:1053C0008093460390934703A0934803B093490307
:1053D000BF91AF919F918F911F901FBE1F90189505
:1053E00010924A0310924B0310924C0310924D03FB
:1053F0000895CF92DF92EF92FF926B017C010E94A1
:10540000380981110EC00E94B129C61AD70AE80ACC
:10541000F90AC0924A03D0924B03E0924C03F092F7
:105420004D03FF90EF90DF90CF9008950F931F935F
:105430000E943809882321F01F910F910C94B12903
:105440000E94B12900914A0310914B0320914C0313
:1054500030914D03600F711F821F931F1F910F9199
:1054600008950E94380981110C94A5290E94162ADA
:10547000CB01089587E797E7909301088093000890
:1054800088E19AE00FB6F894A895809360000FBE6B
:1054900090936000FFCF9093E7018093E601089519
:1054A000809102030895CF93DF9300D00F92CDB780
:1054B000DEB790915203943019F589837B836A8318
:1054C00082E08093E9008FEF9091E800815095FD94
:1054D00006C095ED9A95F1F700008111F5CF809106
:1054E000E80085FF0DC050E040E063E070E0CE01D1
:1054F00001960E946A2C8091E8008E778093E800E4
:105500000F900F900F90DF91CF910895BC0184E030
:105510000C94532ABC0183E00C94532A9C0182E032
:105520008093E9009FEF8091E800915085FD06C0CF
:1055300085ED8A95F1F700009111F5CF8091E80093
:1055400085FF0CC050E040E066E070E0C9010E94B9
:105550006A2C8091E8008E778093E8000895CF93BD
:10556000DF93EC0181E08093E9008FEF9091E800F8
:10557000815095FD06C095ED9A95F1F700008111D7
:10558000F5CF8091E80085FF14C050E040E068E06E
:1055900070E0CE010E946A2C8091E8008E778093A3
:1055A000E80088E0FE01AAEFB2E001900D928A9532
:1055B000E1F7DF91CF91089580915103811109C0E6
:1055C0000E94FA2D0E94572E8091E2008460809301
:1055D000E2000895109251030895089508950895E2
:1055E00042E061EC81E00E94762D42E261EC82E0D3
:1055F0000C94762D80915403833009F45FC030F40D
:105600008130C1F1823009F49BC008958A3009F4D9
:1056100087C08B3009F46DC0893009F04EC080918D
:105620005303813209F049C0809157039091580388
:10563000029708F042C08091E800877F8093E800DD
:105640008091E80082FF35C09091F3008091F200D4
:10565000029729F48091F1008B7F813021F48091B1
:10566000F100809302038091E8008B778093E8003B
:105670000C94AA2D80915303813AF9F48091E800AB
:10568000877F8093E8008091570390915803892B7E
:1056900061F468E08AEF92E070E00E94B92C80919A
:1056A000E8008B778093E800089560E090E080E068
:1056B000F3CF809152038111C3CF0895809153039A
:1056C000813AD9F78091570390915803892BA9F714
:1056D0008091E800877F8093E8008091E80080FF58
:1056E000FCCF80913C018093F1008091E8008E779F
:1056F000BDCF80915303813201F780915703909180
:105700005803892BD1F68091E800877F8093E800C9
:105710000E94AA2D8091550380933C010C94C221D4
:1057200080915303813249F68091E800877F80930E
:10573000E8000E94AA2D80915603809303030895E8
:1057400080915303813A09F0B8CF8091E800877FB8
:105750008093E8008091E80080FFFCCF80910303F4
:10576000C2CF84B7877F84BF0FB6F894A895809185
:105770006000886180936000109260000FBE80E836
:1057800090E00FB6F89480936100909361000FBE93
:105790000E94461D0E94FA2D0E94572E8091E20021
:1057A00084608093E20078940E94E0300E94581D4B
:1057B00082E391E00E94CF1C80915203853099F0E2
:1057C0000E94641D0E94541DF7CF0E9422298091DF
:1057D0005003882341F00E945429882321F00E941D
:1057E000542C0E94C22180915203853071F30E9493
:1057F0006B29E6CF0C94FC2B292F3327233031055E
:1058000019F168F42130310509F444C02230310522
:1058100009F445C090E080E030E020E025C021326E
:10582000310549F122323105A9F780E490E025EAFB
:1058300035E061157105C1F08BE790E02AE235E0B3
:105840006130710589F0E6CF99278130910581F0AB
:10585000009729F00297F1F6EDE9F4E002C0E9EDD6
:10586000F4E0849190E09F01FA0131832083089550
:10587000E9ECF4E0F6CF89E090E02FEE34E061153A
:10588000710591F389E090E028E035E06130710521
:1058900059F3C0CF82E190E028E135E0E5CF8BE31A
:1058A00090E02DED34E0E0CF80E189BD82E189BD5B
:1058B00009B400FEFDCF8091D8008F7D8093D80081
:1058C0008091E00082608093E0008091E00081FDA3
:1058D000FCCF0895AF92BF92CF92DF92FF920F93C9
:1058E0001F93CF93DF936C01EB018A010E94C92DB6
:1058F000F82E811123C00115110539F0F8018081BE
:105900009181C81BD90BC80ED91EB12CA12C209790
:10591000A9F08091E80085FD22C08091E8008E7793
:105920008093E80001151105A1F0F80180819181B3
:10593000A80EB91EB182A08285E0F82E8F2DDF91CE
:10594000CF911F910F91FF90DF90CF90BF90AF90BC
:1059500008950E94C92D8823D1F2F82EEFCFF601C9
:1059600081916F018093F1002197FFEFAF1ABF0A79
:10597000CECFFC018091590390915A038617970767
:10598000A0F06115710529F49091E8009E7790933D
:10599000E80090E06115710551F4911108C0809103
:1059A000E80082FF34C080E00895BC01F2CF80910E
:1059B00052038823C1F18530C1F18091E80083FD55
:1059C00030C08091E80082FDEACF8091E80080FF3E
:1059D000E1CF8091F3002091F200382F611571051D
:1059E00019F02830310558F091E02830310509F0E0
:1059F00090E02091E8002E772093E800CBCF8191B2
:105A00008093F100615071092F5F3F4FE7CF809184
:105A10005203882341F0853041F08091E80083FFF4
:105A2000BECF81E0089582E0089583E00895FC01EF
:105A30008091590390915A0386179707A0F061153A
:105A4000710529F48091E8008E778093E80090E05A
:105A50006115710551F4911108C08091E80082FF31
:105A600035C080E00895BC01F2CF809152038823B5
:105A7000C9F18530C9F18091E80083FD31C0809182
:105A8000E80082FDEACF8091E80080FFE1CF8091BD
:105A9000F3002091F200382F6115710519F02830BC
:105AA000310558F091E02830310509F090E08091FF
:105AB000E8008E778093E800CBCF84918093F1004B
:105AC0003196615071092F5F3F4FE6CF80915203AD
:105AD000882341F0853041F08091E80083FFBDCFFD
